{
  "abi": [
    {
      "inputs": [],
      "stateMutability": "nonpayable",
      "type": "constructor"
    },
    {
      "inputs": [
        {
          "internalType": "address",
          "name": "",
          "type": "address"
        }
      ],
      "name": "counts",
      "outputs": [
        {
          "internalType": "uint256",
          "name": "count",
          "type": "uint256"
        }
      ],
      "stateMutability": "view",
      "type": "function"
    },
    {
      "inputs": [],
      "name": "decrement",
      "outputs": [],
      "stateMutability": "nonpayable",
      "type": "function"
    },
    {
      "inputs": [],
      "name": "initialize",
      "outputs": [],
      "stateMutability": "nonpayable",
      "type": "function"
    },
    {
      "inputs": [
        {
          "internalType": "address",
          "name": "",
          "type": "address"
        }
      ],
      "name": "initialized",
      "outputs": [
        {
          "internalType": "bool",
          "name": "",
          "type": "bool"
        }
      ],
      "stateMutability": "view",
      "type": "function"
    },
    {
      "inputs": [],
      "name": "owner",
      "outputs": [
        {
          "internalType": "address",
          "name": "",
          "type": "address"
        }
      ],
      "stateMutability": "view",
      "type": "function"
    },
    {
      "inputs": [
        {
          "internalType": "uint256",
          "name": "amount",
          "type": "uint256"
        }
      ],
      "name": "topup",
      "outputs": [],
      "stateMutability": "payable",
      "type": "function"
    },
    {
      "inputs": [
        {
          "internalType": "uint256",
          "name": "amount",
          "type": "uint256"
        }
      ],
      "name": "withdraw",
      "outputs": [],
      "stateMutability": "nonpayable",
      "type": "function"
    }
  ],
  "devdoc": {
    "kind": "dev",
    "methods": {},
    "version": 1
  },
  "evm": {
    "assembly": "    /* \"Spawnpoint.sol\":60:1261  contract Spawnpoint {... */\n  mstore(0x40, 0x80)\n    /* \"Spawnpoint.sol\":263:308  constructor() {... */\n  callvalue\n  dup1\n  iszero\n  tag_1\n  jumpi\n  0x00\n  dup1\n  revert\ntag_1:\n  pop\n    /* \"Spawnpoint.sol\":284:289  owner */\n  0x02\n    /* \"Spawnpoint.sol\":284:302  owner = msg.sender */\n  dup1\n  sload\n  not(sub(shl(0xa0, 0x01), 0x01))\n  and\n    /* \"Spawnpoint.sol\":292:302  msg.sender */\n  caller\n    /* \"Spawnpoint.sol\":284:302  owner = msg.sender */\n  or\n  swap1\n  sstore\n    /* \"Spawnpoint.sol\":60:1261  contract Spawnpoint {... */\n  dataSize(sub_0)\n  dup1\n  dataOffset(sub_0)\n  0x00\n  codecopy\n  0x00\n  return\nstop\n\nsub_0: assembly {\n        /* \"Spawnpoint.sol\":60:1261  contract Spawnpoint {... */\n      mstore(0x40, 0x80)\n      jumpi(tag_1, lt(calldatasize, 0x04))\n      shr(0xe0, calldataload(0x00))\n      dup1\n      0x30db555f\n      gt\n      tag_9\n      jumpi\n      dup1\n      0x30db555f\n      eq\n      tag_5\n      jumpi\n      dup1\n      0x8129fc1c\n      eq\n      tag_6\n      jumpi\n      dup1\n      0x8da5cb5b\n      eq\n      tag_7\n      jumpi\n      dup1\n      0xcbca47db\n      eq\n      tag_8\n      jumpi\n      0x00\n      dup1\n      revert\n    tag_9:\n      dup1\n      0x0568e65e\n      eq\n      tag_2\n      jumpi\n      dup1\n      0x2baeceb7\n      eq\n      tag_3\n      jumpi\n      dup1\n      0x2e1a7d4d\n      eq\n      tag_4\n      jumpi\n    tag_1:\n      0x00\n      dup1\n      revert\n        /* \"Spawnpoint.sol\":136:181  mapping(address => CountHolder) public counts */\n    tag_2:\n      callvalue\n      dup1\n      iszero\n      tag_10\n      jumpi\n      0x00\n      dup1\n      revert\n    tag_10:\n      pop\n      tag_11\n      tag_12\n      calldatasize\n      0x04\n      tag_13\n      jump\t// in\n    tag_12:\n      0x00\n      0x20\n      dup2\n      swap1\n      mstore\n      swap1\n      dup2\n      mstore\n      0x40\n      swap1\n      keccak256\n      sload\n      dup2\n      jump\n    tag_11:\n      mload(0x40)\n        /* \"#utility.yul\":474:499   */\n      swap1\n      dup2\n      mstore\n        /* \"#utility.yul\":462:464   */\n      0x20\n        /* \"#utility.yul\":447:465   */\n      add\n        /* \"Spawnpoint.sol\":136:181  mapping(address => CountHolder) public counts */\n    tag_15:\n      mload(0x40)\n      dup1\n      swap2\n      sub\n      swap1\n      return\n        /* \"Spawnpoint.sol\":508:727  function decrement() public {... */\n    tag_3:\n      callvalue\n      dup1\n      iszero\n      tag_17\n      jumpi\n      0x00\n      dup1\n      revert\n    tag_17:\n      pop\n      tag_18\n      tag_19\n      jump\t// in\n    tag_18:\n      stop\n        /* \"Spawnpoint.sol\":1013:1258  function withdraw(uint256 amount) public {... */\n    tag_4:\n      callvalue\n      dup1\n      iszero\n      tag_20\n      jumpi\n      0x00\n      dup1\n      revert\n    tag_20:\n      pop\n      tag_18\n      tag_22\n      calldatasize\n      0x04\n      tag_23\n      jump\t// in\n    tag_22:\n      tag_24\n      jump\t// in\n        /* \"Spawnpoint.sol\":733:1007  function topup(uint256 amount) public payable {... */\n    tag_5:\n      tag_18\n      tag_26\n      calldatasize\n      0x04\n      tag_23\n      jump\t// in\n    tag_26:\n      tag_27\n      jump\t// in\n        /* \"Spawnpoint.sol\":314:502  function initialize() public {... */\n    tag_6:\n      callvalue\n      dup1\n      iszero\n      tag_28\n      jumpi\n      0x00\n      dup1\n      revert\n    tag_28:\n      pop\n      tag_18\n      tag_30\n      jump\t// in\n        /* \"Spawnpoint.sol\":236:256  address public owner */\n    tag_7:\n      callvalue\n      dup1\n      iszero\n      tag_31\n      jumpi\n      0x00\n      dup1\n      revert\n    tag_31:\n      pop\n      sload(0x02)\n      tag_32\n      swap1\n      sub(shl(0xa0, 0x01), 0x01)\n      and\n      dup2\n      jump\n    tag_32:\n      mload(0x40)\n      sub(shl(0xa0, 0x01), 0x01)\n        /* \"#utility.yul\":859:914   */\n      swap1\n      swap2\n      and\n        /* \"#utility.yul\":841:915   */\n      dup2\n      mstore\n        /* \"#utility.yul\":829:831   */\n      0x20\n        /* \"#utility.yul\":814:832   */\n      add\n        /* \"Spawnpoint.sol\":236:256  address public owner */\n      tag_15\n        /* \"#utility.yul\":695:921   */\n      jump\n        /* \"Spawnpoint.sol\":186:229  mapping(address => bool) public initialized */\n    tag_8:\n      callvalue\n      dup1\n      iszero\n      tag_36\n      jumpi\n      0x00\n      dup1\n      revert\n    tag_36:\n      pop\n      tag_37\n      tag_38\n      calldatasize\n      0x04\n      tag_13\n      jump\t// in\n    tag_38:\n      mstore(0x20, 0x01)\n      0x00\n      swap1\n      dup2\n      mstore\n      0x40\n      swap1\n      keccak256\n      sload\n      0xff\n      and\n      dup2\n      jump\n    tag_37:\n      mload(0x40)\n        /* \"#utility.yul\":1091:1105   */\n      swap1\n      iszero\n        /* \"#utility.yul\":1084:1106   */\n      iszero\n        /* \"#utility.yul\":1066:1107   */\n      dup2\n      mstore\n        /* \"#utility.yul\":1054:1056   */\n      0x20\n        /* \"#utility.yul\":1039:1057   */\n      add\n        /* \"Spawnpoint.sol\":186:229  mapping(address => bool) public initialized */\n      tag_15\n        /* \"#utility.yul\":926:1113   */\n      jump\n        /* \"Spawnpoint.sol\":508:727  function decrement() public {... */\n    tag_19:\n        /* \"Spawnpoint.sol\":563:573  msg.sender */\n      caller\n        /* \"Spawnpoint.sol\":551:574  initialized[msg.sender] */\n      0x00\n      swap1\n      dup2\n      mstore\n        /* \"Spawnpoint.sol\":551:562  initialized */\n      0x01\n        /* \"Spawnpoint.sol\":551:574  initialized[msg.sender] */\n      0x20\n      mstore\n      0x40\n      swap1\n      keccak256\n      sload\n      0xff\n      and\n        /* \"Spawnpoint.sol\":543:594  require(initialized[msg.sender], \"Not initialized\") */\n      tag_43\n      jumpi\n      mload(0x40)\n      shl(0xe5, 0x461bcd)\n      dup2\n      mstore\n        /* \"#utility.yul\":1320:1322   */\n      0x20\n        /* \"Spawnpoint.sol\":543:594  require(initialized[msg.sender], \"Not initialized\") */\n      0x04\n      dup3\n      add\n        /* \"#utility.yul\":1302:1323   */\n      mstore\n        /* \"#utility.yul\":1359:1361   */\n      0x0f\n        /* \"#utility.yul\":1339:1357   */\n      0x24\n      dup3\n      add\n        /* \"#utility.yul\":1332:1362   */\n      mstore\n      shl(0x8a, 0x139bdd081a5b9a5d1a585b1a5e9959)\n        /* \"#utility.yul\":1378:1396   */\n      0x44\n      dup3\n      add\n        /* \"#utility.yul\":1371:1416   */\n      mstore\n        /* \"#utility.yul\":1433:1451   */\n      0x64\n      add\n        /* \"Spawnpoint.sol\":543:594  require(initialized[msg.sender], \"Not initialized\") */\n    tag_44:\n      mload(0x40)\n      dup1\n      swap2\n      sub\n      swap1\n      revert\n    tag_43:\n        /* \"Spawnpoint.sol\":637:647  msg.sender */\n      caller\n        /* \"Spawnpoint.sol\":601:627  CountHolder storage holder */\n      0x00\n        /* \"Spawnpoint.sol\":630:648  counts[msg.sender] */\n      swap1\n      dup2\n      mstore\n      0x20\n      dup2\n      swap1\n      mstore\n      0x40\n      swap1\n      keccak256\n        /* \"Spawnpoint.sol\":663:675  holder.count */\n      dup1\n      sload\n        /* \"Spawnpoint.sol\":655:695  require(holder.count > 0, \"Low balance\") */\n      tag_46\n      jumpi\n      mload(0x40)\n      shl(0xe5, 0x461bcd)\n      dup2\n      mstore\n        /* \"#utility.yul\":1664:1666   */\n      0x20\n        /* \"Spawnpoint.sol\":655:695  require(holder.count > 0, \"Low balance\") */\n      0x04\n      dup3\n      add\n        /* \"#utility.yul\":1646:1667   */\n      mstore\n        /* \"#utility.yul\":1703:1705   */\n      0x0b\n        /* \"#utility.yul\":1683:1701   */\n      0x24\n      dup3\n      add\n        /* \"#utility.yul\":1676:1706   */\n      mstore\n        /* \"#utility.yul\":1742:1755   */\n      0x4c6f772062616c616e6365000000000000000000000000000000000000000000\n        /* \"#utility.yul\":1722:1740   */\n      0x44\n      dup3\n      add\n        /* \"#utility.yul\":1715:1756   */\n      mstore\n        /* \"#utility.yul\":1773:1791   */\n      0x64\n      add\n        /* \"Spawnpoint.sol\":655:695  require(holder.count > 0, \"Low balance\") */\n      tag_44\n        /* \"#utility.yul\":1462:1797   */\n      jump\n        /* \"Spawnpoint.sol\":655:695  require(holder.count > 0, \"Low balance\") */\n    tag_46:\n        /* \"Spawnpoint.sol\":720:721  1 */\n      0x01\n        /* \"Spawnpoint.sol\":704:710  holder */\n      dup2\n        /* \"Spawnpoint.sol\":704:716  holder.count */\n      0x00\n      add\n      0x00\n        /* \"Spawnpoint.sol\":704:721  holder.count -= 1 */\n      dup3\n      dup3\n      sload\n      tag_49\n      swap2\n      swap1\n      tag_50\n      jump\t// in\n    tag_49:\n      swap1\n      swap2\n      sstore\n      pop\n      pop\n      pop\n        /* \"Spawnpoint.sol\":508:727  function decrement() public {... */\n      jump\t// out\n        /* \"Spawnpoint.sol\":1013:1258  function withdraw(uint256 amount) public {... */\n    tag_24:\n        /* \"Spawnpoint.sol\":1083:1088  owner */\n      and(sub(shl(0xa0, 0x01), 0x01), sload(0x02))\n        /* \"Spawnpoint.sol\":1069:1079  msg.sender */\n      caller\n        /* \"Spawnpoint.sol\":1069:1088  msg.sender == owner */\n      eq\n        /* \"Spawnpoint.sol\":1061:1129  require(msg.sender == owner, \"Only the contract owner can withdraw\") */\n      tag_52\n      jumpi\n      mload(0x40)\n      shl(0xe5, 0x461bcd)\n      dup2\n      mstore\n        /* \"#utility.yul\":2269:2271   */\n      0x20\n        /* \"Spawnpoint.sol\":1061:1129  require(msg.sender == owner, \"Only the contract owner can withdraw\") */\n      0x04\n      dup3\n      add\n        /* \"#utility.yul\":2251:2272   */\n      mstore\n        /* \"#utility.yul\":2308:2310   */\n      0x24\n        /* \"#utility.yul\":2288:2306   */\n      dup1\n      dup3\n      add\n        /* \"#utility.yul\":2281:2311   */\n      mstore\n        /* \"#utility.yul\":2347:2381   */\n      0x4f6e6c792074686520636f6e7472616374206f776e65722063616e2077697468\n        /* \"#utility.yul\":2327:2345   */\n      0x44\n      dup3\n      add\n        /* \"#utility.yul\":2320:2382   */\n      mstore\n      shl(0xe0, 0x64726177)\n        /* \"#utility.yul\":2398:2416   */\n      0x64\n      dup3\n      add\n        /* \"#utility.yul\":2391:2425   */\n      mstore\n        /* \"#utility.yul\":2442:2461   */\n      0x84\n      add\n        /* \"Spawnpoint.sol\":1061:1129  require(msg.sender == owner, \"Only the contract owner can withdraw\") */\n      tag_44\n        /* \"#utility.yul\":2067:2467   */\n      jump\n        /* \"Spawnpoint.sol\":1061:1129  require(msg.sender == owner, \"Only the contract owner can withdraw\") */\n    tag_52:\n        /* \"Spawnpoint.sol\":1169:1175  amount */\n      dup1\n        /* \"Spawnpoint.sol\":1144:1165  address(this).balance */\n      selfbalance\n        /* \"Spawnpoint.sol\":1144:1175  address(this).balance >= amount */\n      lt\n      iszero\n        /* \"Spawnpoint.sol\":1136:1212  require(address(this).balance >= amount, \"Insufficient balance in contract\") */\n      tag_55\n      jumpi\n      mload(0x40)\n      shl(0xe5, 0x461bcd)\n      dup2\n      mstore\n        /* \"#utility.yul\":2674:2676   */\n      0x20\n        /* \"Spawnpoint.sol\":1136:1212  require(address(this).balance >= amount, \"Insufficient balance in contract\") */\n      0x04\n      dup3\n      add\n        /* \"#utility.yul\":2656:2677   */\n      dup2\n      swap1\n      mstore\n        /* \"#utility.yul\":2693:2711   */\n      0x24\n      dup3\n      add\n        /* \"#utility.yul\":2686:2716   */\n      mstore\n        /* \"#utility.yul\":2752:2786   */\n      0x496e73756666696369656e742062616c616e636520696e20636f6e7472616374\n        /* \"#utility.yul\":2732:2750   */\n      0x44\n      dup3\n      add\n        /* \"#utility.yul\":2725:2787   */\n      mstore\n        /* \"#utility.yul\":2804:2822   */\n      0x64\n      add\n        /* \"Spawnpoint.sol\":1136:1212  require(address(this).balance >= amount, \"Insufficient balance in contract\") */\n      tag_44\n        /* \"#utility.yul\":2472:2828   */\n      jump\n        /* \"Spawnpoint.sol\":1136:1212  require(address(this).balance >= amount, \"Insufficient balance in contract\") */\n    tag_55:\n        /* \"Spawnpoint.sol\":1229:1234  owner */\n      sload(0x02)\n        /* \"Spawnpoint.sol\":1221:1252  payable(owner).transfer(amount) */\n      mload(0x40)\n      sub(shl(0xa0, 0x01), 0x01)\n        /* \"Spawnpoint.sol\":1229:1234  owner */\n      swap1\n      swap2\n      and\n      swap1\n        /* \"Spawnpoint.sol\":1221:1252  payable(owner).transfer(amount) */\n      dup3\n      iszero\n      0x08fc\n      mul\n      swap1\n        /* \"Spawnpoint.sol\":1245:1251  amount */\n      dup4\n      swap1\n        /* \"Spawnpoint.sol\":1229:1234  owner */\n      0x00\n        /* \"Spawnpoint.sol\":1221:1252  payable(owner).transfer(amount) */\n      dup2\n        /* \"Spawnpoint.sol\":1229:1234  owner */\n      dup2\n        /* \"Spawnpoint.sol\":1221:1252  payable(owner).transfer(amount) */\n      dup2\n        /* \"Spawnpoint.sol\":1245:1251  amount */\n      dup6\n        /* \"Spawnpoint.sol\":1229:1234  owner */\n      dup9\n        /* \"Spawnpoint.sol\":1221:1252  payable(owner).transfer(amount) */\n      dup9\n      call\n      swap4\n      pop\n      pop\n      pop\n      pop\n      iszero\n      dup1\n      iszero\n      tag_59\n      jumpi\n      returndatasize\n      0x00\n      dup1\n      returndatacopy\n      revert(0x00, returndatasize)\n    tag_59:\n      pop\n        /* \"Spawnpoint.sol\":1013:1258  function withdraw(uint256 amount) public {... */\n      pop\n      jump\t// out\n        /* \"Spawnpoint.sol\":733:1007  function topup(uint256 amount) public payable {... */\n    tag_27:\n        /* \"Spawnpoint.sol\":806:816  msg.sender */\n      caller\n        /* \"Spawnpoint.sol\":794:817  initialized[msg.sender] */\n      0x00\n      swap1\n      dup2\n      mstore\n        /* \"Spawnpoint.sol\":794:805  initialized */\n      0x01\n        /* \"Spawnpoint.sol\":794:817  initialized[msg.sender] */\n      0x20\n      mstore\n      0x40\n      swap1\n      keccak256\n      sload\n      0xff\n      and\n        /* \"Spawnpoint.sol\":786:837  require(initialized[msg.sender], \"Not initialized\") */\n      tag_61\n      jumpi\n      mload(0x40)\n      shl(0xe5, 0x461bcd)\n      dup2\n      mstore\n        /* \"#utility.yul\":1320:1322   */\n      0x20\n        /* \"Spawnpoint.sol\":786:837  require(initialized[msg.sender], \"Not initialized\") */\n      0x04\n      dup3\n      add\n        /* \"#utility.yul\":1302:1323   */\n      mstore\n        /* \"#utility.yul\":1359:1361   */\n      0x0f\n        /* \"#utility.yul\":1339:1357   */\n      0x24\n      dup3\n      add\n        /* \"#utility.yul\":1332:1362   */\n      mstore\n      shl(0x8a, 0x139bdd081a5b9a5d1a585b1a5e9959)\n        /* \"#utility.yul\":1378:1396   */\n      0x44\n      dup3\n      add\n        /* \"#utility.yul\":1371:1416   */\n      mstore\n        /* \"#utility.yul\":1433:1451   */\n      0x64\n      add\n        /* \"Spawnpoint.sol\":786:837  require(initialized[msg.sender], \"Not initialized\") */\n      tag_44\n        /* \"#utility.yul\":1118:1457   */\n      jump\n        /* \"Spawnpoint.sol\":786:837  require(initialized[msg.sender], \"Not initialized\") */\n    tag_61:\n        /* \"Spawnpoint.sol\":865:875  amount * 5 */\n      tag_63\n        /* \"Spawnpoint.sol\":865:871  amount */\n      dup2\n        /* \"Spawnpoint.sol\":874:875  5 */\n      0x05\n        /* \"Spawnpoint.sol\":865:875  amount * 5 */\n      tag_64\n      jump\t// in\n    tag_63:\n        /* \"Spawnpoint.sol\":865:884  amount * 5 * 10**13 */\n      tag_65\n      swap1\n        /* \"Spawnpoint.sol\":878:884  10**13 */\n      0x09184e72a000\n        /* \"Spawnpoint.sol\":865:884  amount * 5 * 10**13 */\n      tag_64\n      jump\t// in\n    tag_65:\n        /* \"Spawnpoint.sol\":852:861  msg.value */\n      callvalue\n        /* \"Spawnpoint.sol\":852:884  msg.value == amount * 5 * 10**13 */\n      eq\n        /* \"Spawnpoint.sol\":844:916  require(msg.value == amount * 5 * 10**13, \"Incorrect Ether amount sent\") */\n      tag_66\n      jumpi\n      mload(0x40)\n      shl(0xe5, 0x461bcd)\n      dup2\n      mstore\n        /* \"#utility.yul\":3208:3210   */\n      0x20\n        /* \"Spawnpoint.sol\":844:916  require(msg.value == amount * 5 * 10**13, \"Incorrect Ether amount sent\") */\n      0x04\n      dup3\n      add\n        /* \"#utility.yul\":3190:3211   */\n      mstore\n        /* \"#utility.yul\":3247:3249   */\n      0x1b\n        /* \"#utility.yul\":3227:3245   */\n      0x24\n      dup3\n      add\n        /* \"#utility.yul\":3220:3250   */\n      mstore\n        /* \"#utility.yul\":3286:3315   */\n      0x496e636f727265637420457468657220616d6f756e742073656e740000000000\n        /* \"#utility.yul\":3266:3284   */\n      0x44\n      dup3\n      add\n        /* \"#utility.yul\":3259:3316   */\n      mstore\n        /* \"#utility.yul\":3333:3351   */\n      0x64\n      add\n        /* \"Spawnpoint.sol\":844:916  require(msg.value == amount * 5 * 10**13, \"Incorrect Ether amount sent\") */\n      tag_44\n        /* \"#utility.yul\":3006:3357   */\n      jump\n        /* \"Spawnpoint.sol\":844:916  require(msg.value == amount * 5 * 10**13, \"Incorrect Ether amount sent\") */\n    tag_66:\n        /* \"Spawnpoint.sol\":961:971  msg.sender */\n      caller\n        /* \"Spawnpoint.sol\":925:951  CountHolder storage holder */\n      0x00\n        /* \"Spawnpoint.sol\":954:972  counts[msg.sender] */\n      swap1\n      dup2\n      mstore\n      0x20\n      dup2\n      swap1\n      mstore\n      0x40\n      dup2\n      keccak256\n        /* \"Spawnpoint.sol\":979:1001  holder.count += amount */\n      dup1\n      sload\n        /* \"Spawnpoint.sol\":954:972  counts[msg.sender] */\n      swap1\n      swap2\n        /* \"Spawnpoint.sol\":995:1001  amount */\n      dup4\n      swap2\n        /* \"Spawnpoint.sol\":954:972  counts[msg.sender] */\n      dup4\n      swap2\n        /* \"Spawnpoint.sol\":925:951  CountHolder storage holder */\n      swap1\n        /* \"Spawnpoint.sol\":979:1001  holder.count += amount */\n      tag_69\n      swap1\n        /* \"Spawnpoint.sol\":995:1001  amount */\n      dup5\n      swap1\n        /* \"Spawnpoint.sol\":979:1001  holder.count += amount */\n      tag_70\n      jump\t// in\n    tag_69:\n      swap1\n      swap2\n      sstore\n      pop\n      pop\n      pop\n      pop\n        /* \"Spawnpoint.sol\":733:1007  function topup(uint256 amount) public payable {... */\n      jump\t// out\n        /* \"Spawnpoint.sol\":314:502  function initialize() public {... */\n    tag_30:\n        /* \"Spawnpoint.sol\":371:381  msg.sender */\n      caller\n        /* \"Spawnpoint.sol\":359:382  initialized[msg.sender] */\n      0x00\n      swap1\n      dup2\n      mstore\n        /* \"Spawnpoint.sol\":359:370  initialized */\n      0x01\n        /* \"Spawnpoint.sol\":359:382  initialized[msg.sender] */\n      0x20\n      mstore\n      0x40\n      swap1\n      keccak256\n      sload\n      0xff\n      and\n        /* \"Spawnpoint.sol\":358:382  !initialized[msg.sender] */\n      iszero\n        /* \"Spawnpoint.sol\":350:406  require(!initialized[msg.sender], \"Already Initialized\") */\n      tag_72\n      jumpi\n      mload(0x40)\n      shl(0xe5, 0x461bcd)\n      dup2\n      mstore\n        /* \"#utility.yul\":3694:3696   */\n      0x20\n        /* \"Spawnpoint.sol\":350:406  require(!initialized[msg.sender], \"Already Initialized\") */\n      0x04\n      dup3\n      add\n        /* \"#utility.yul\":3676:3697   */\n      mstore\n        /* \"#utility.yul\":3733:3735   */\n      0x13\n        /* \"#utility.yul\":3713:3731   */\n      0x24\n      dup3\n      add\n        /* \"#utility.yul\":3706:3736   */\n      mstore\n        /* \"#utility.yul\":3772:3793   */\n      0x416c726561647920496e697469616c697a656400000000000000000000000000\n        /* \"#utility.yul\":3752:3770   */\n      0x44\n      dup3\n      add\n        /* \"#utility.yul\":3745:3794   */\n      mstore\n        /* \"#utility.yul\":3811:3829   */\n      0x64\n      add\n        /* \"Spawnpoint.sol\":350:406  require(!initialized[msg.sender], \"Already Initialized\") */\n      tag_44\n        /* \"#utility.yul\":3492:3835   */\n      jump\n        /* \"Spawnpoint.sol\":350:406  require(!initialized[msg.sender], \"Already Initialized\") */\n    tag_72:\n        /* \"Spawnpoint.sol\":436:459  CountHolder({count: 3}) */\n      0x40\n      dup1\n      mload\n      0x20\n      dup1\n      dup3\n      add\n      dup4\n      mstore\n        /* \"Spawnpoint.sol\":456:457  3 */\n      0x03\n        /* \"Spawnpoint.sol\":436:459  CountHolder({count: 3}) */\n      dup3\n      mstore\n        /* \"Spawnpoint.sol\":422:432  msg.sender */\n      caller\n      0x00\n        /* \"Spawnpoint.sol\":415:433  counts[msg.sender] */\n      swap1\n      dup2\n      mstore\n      dup1\n      dup3\n      mstore\n      dup4\n      dup2\n      keccak256\n        /* \"Spawnpoint.sol\":415:459  counts[msg.sender] = CountHolder({count: 3}) */\n      swap3\n      mload\n      swap1\n      swap3\n      sstore\n        /* \"Spawnpoint.sol\":492:496  true */\n      0x01\n        /* \"Spawnpoint.sol\":466:489  initialized[msg.sender] */\n      swap1\n      dup2\n      swap1\n      mstore\n      swap2\n      swap1\n      keccak256\n        /* \"Spawnpoint.sol\":466:496  initialized[msg.sender] = true */\n      dup1\n      sload\n      not(0xff)\n      and\n      swap1\n      swap2\n      or\n      swap1\n      sstore\n        /* \"Spawnpoint.sol\":314:502  function initialize() public {... */\n      jump\t// out\n        /* \"#utility.yul\":14:323   */\n    tag_13:\n        /* \"#utility.yul\":73:79   */\n      0x00\n        /* \"#utility.yul\":126:128   */\n      0x20\n        /* \"#utility.yul\":114:123   */\n      dup3\n        /* \"#utility.yul\":105:112   */\n      dup5\n        /* \"#utility.yul\":101:124   */\n      sub\n        /* \"#utility.yul\":97:129   */\n      slt\n        /* \"#utility.yul\":94:146   */\n      iszero\n      tag_78\n      jumpi\n        /* \"#utility.yul\":142:143   */\n      0x00\n        /* \"#utility.yul\":139:140   */\n      dup1\n        /* \"#utility.yul\":132:144   */\n      revert\n        /* \"#utility.yul\":94:146   */\n    tag_78:\n        /* \"#utility.yul\":181:190   */\n      dup2\n        /* \"#utility.yul\":168:191   */\n      calldataload\n      sub(shl(0xa0, 0x01), 0x01)\n        /* \"#utility.yul\":224:229   */\n      dup2\n        /* \"#utility.yul\":220:274   */\n      and\n        /* \"#utility.yul\":213:218   */\n      dup2\n        /* \"#utility.yul\":210:275   */\n      eq\n        /* \"#utility.yul\":200:293   */\n      tag_79\n      jumpi\n        /* \"#utility.yul\":289:290   */\n      0x00\n        /* \"#utility.yul\":286:287   */\n      dup1\n        /* \"#utility.yul\":279:291   */\n      revert\n        /* \"#utility.yul\":200:293   */\n    tag_79:\n        /* \"#utility.yul\":312:317   */\n      swap4\n        /* \"#utility.yul\":14:323   */\n      swap3\n      pop\n      pop\n      pop\n      jump\t// out\n        /* \"#utility.yul\":510:690   */\n    tag_23:\n        /* \"#utility.yul\":569:575   */\n      0x00\n        /* \"#utility.yul\":622:624   */\n      0x20\n        /* \"#utility.yul\":610:619   */\n      dup3\n        /* \"#utility.yul\":601:608   */\n      dup5\n        /* \"#utility.yul\":597:620   */\n      sub\n        /* \"#utility.yul\":593:625   */\n      slt\n        /* \"#utility.yul\":590:642   */\n      iszero\n      tag_82\n      jumpi\n        /* \"#utility.yul\":638:639   */\n      0x00\n        /* \"#utility.yul\":635:636   */\n      dup1\n        /* \"#utility.yul\":628:640   */\n      revert\n        /* \"#utility.yul\":590:642   */\n    tag_82:\n      pop\n        /* \"#utility.yul\":661:684   */\n      calldataload\n      swap2\n        /* \"#utility.yul\":510:690   */\n      swap1\n      pop\n      jump\t// out\n        /* \"#utility.yul\":1802:1929   */\n    tag_75:\n        /* \"#utility.yul\":1863:1873   */\n      0x4e487b71\n        /* \"#utility.yul\":1858:1861   */\n      0xe0\n        /* \"#utility.yul\":1854:1874   */\n      shl\n        /* \"#utility.yul\":1851:1852   */\n      0x00\n        /* \"#utility.yul\":1844:1875   */\n      mstore\n        /* \"#utility.yul\":1894:1898   */\n      0x11\n        /* \"#utility.yul\":1891:1892   */\n      0x04\n        /* \"#utility.yul\":1884:1899   */\n      mstore\n        /* \"#utility.yul\":1918:1922   */\n      0x24\n        /* \"#utility.yul\":1915:1916   */\n      0x00\n        /* \"#utility.yul\":1908:1923   */\n      revert\n        /* \"#utility.yul\":1934:2062   */\n    tag_50:\n        /* \"#utility.yul\":2001:2010   */\n      dup2\n      dup2\n      sub\n        /* \"#utility.yul\":2022:2033   */\n      dup2\n      dup2\n      gt\n        /* \"#utility.yul\":2019:2056   */\n      iszero\n      tag_90\n      jumpi\n        /* \"#utility.yul\":2036:2054   */\n      tag_90\n      tag_75\n      jump\t// in\n    tag_90:\n        /* \"#utility.yul\":1934:2062   */\n      swap3\n      swap2\n      pop\n      pop\n      jump\t// out\n        /* \"#utility.yul\":2833:3001   */\n    tag_64:\n        /* \"#utility.yul\":2906:2915   */\n      dup1\n      dup3\n      mul\n        /* \"#utility.yul\":2937:2946   */\n      dup2\n      iszero\n        /* \"#utility.yul\":2954:2969   */\n      dup3\n      dup3\n      div\n        /* \"#utility.yul\":2948:2970   */\n      dup5\n      eq\n        /* \"#utility.yul\":2934:2971   */\n      or\n        /* \"#utility.yul\":2924:2995   */\n      tag_90\n      jumpi\n        /* \"#utility.yul\":2975:2993   */\n      tag_90\n      tag_75\n      jump\t// in\n        /* \"#utility.yul\":3362:3487   */\n    tag_70:\n        /* \"#utility.yul\":3427:3436   */\n      dup1\n      dup3\n      add\n        /* \"#utility.yul\":3448:3458   */\n      dup1\n      dup3\n      gt\n        /* \"#utility.yul\":3445:3481   */\n      iszero\n      tag_90\n      jumpi\n        /* \"#utility.yul\":3461:3479   */\n      tag_90\n      tag_75\n      jump\t// in\n\n    auxdata: 0xa26469706673582212208a2b22e6a9ddb91f858c7d798b2cad24eed222ed26788e0fd3416ac8690a2f0364736f6c63430008190033\n}\n",
    "bytecode": {
      "linkReferences": {},
      "object": "6080604052348015600e575f80fd5b50600280546001600160a01b031916331790556105878061002e5f395ff3fe60806040526004361061006e575f3560e01c806330db555f1161004c57806330db555f146100e55780638129fc1c146100f85780638da5cb5b1461010c578063cbca47db14610143575f80fd5b80630568e65e146100725780632baeceb7146100b05780632e1a7d4d146100c6575b5f80fd5b34801561007d575f80fd5b5061009d61008c3660046104b6565b5f6020819052908152604090205481565b6040519081526020015b60405180910390f35b3480156100bb575f80fd5b506100c4610181565b005b3480156100d1575f80fd5b506100c46100e03660046104e3565b61024d565b6100c46100f33660046104e3565b61033e565b348015610103575f80fd5b506100c4610422565b348015610117575f80fd5b5060025461012b906001600160a01b031681565b6040516001600160a01b0390911681526020016100a7565b34801561014e575f80fd5b5061017161015d3660046104b6565b60016020525f908152604090205460ff1681565b60405190151581526020016100a7565b335f9081526001602052604090205460ff166101d65760405162461bcd60e51b815260206004820152600f60248201526e139bdd081a5b9a5d1a585b1a5e9959608a1b60448201526064015b60405180910390fd5b335f90815260208190526040902080546102325760405162461bcd60e51b815260206004820152600b60248201527f4c6f772062616c616e636500000000000000000000000000000000000000000060448201526064016101cd565b6001815f015f828254610245919061050e565b909155505050565b6002546001600160a01b031633146102b35760405162461bcd60e51b8152602060048201526024808201527f4f6e6c792074686520636f6e7472616374206f776e65722063616e20776974686044820152636472617760e01b60648201526084016101cd565b804710156103035760405162461bcd60e51b815260206004820181905260248201527f496e73756666696369656e742062616c616e636520696e20636f6e747261637460448201526064016101cd565b6002546040516001600160a01b039091169082156108fc029083905f818181858888f1935050505015801561033a573d5f803e3d5ffd5b5050565b335f9081526001602052604090205460ff1661038e5760405162461bcd60e51b815260206004820152600f60248201526e139bdd081a5b9a5d1a585b1a5e9959608a1b60448201526064016101cd565b610399816005610527565b6103a9906509184e72a000610527565b34146103f75760405162461bcd60e51b815260206004820152601b60248201527f496e636f727265637420457468657220616d6f756e742073656e74000000000060448201526064016101cd565b335f90815260208190526040812080549091839183919061041990849061053e565b90915550505050565b335f9081526001602052604090205460ff16156104815760405162461bcd60e51b815260206004820152601360248201527f416c726561647920496e697469616c697a65640000000000000000000000000060448201526064016101cd565b604080516020808201835260038252335f9081528082528381209251909255600190819052919020805460ff19169091179055565b5f602082840312156104c6575f80fd5b81356001600160a01b03811681146104dc575f80fd5b9392505050565b5f602082840312156104f3575f80fd5b5035919050565b634e487b7160e01b5f52601160045260245ffd5b81810381811115610521576105216104fa565b92915050565b8082028115828204841417610521576105216104fa565b80820180821115610521576105216104fa56fea26469706673582212208a2b22e6a9ddb91f858c7d798b2cad24eed222ed26788e0fd3416ac8690a2f0364736f6c63430008190033",
      "opcodes": "PUSH1 0x80 PUSH1 0x40 MSTORE CALLVALUE DUP1 ISZERO PUSH1 0xE JUMPI PUSH0 DUP1 REVERT JUMPDEST POP PUSH1 0x2 DUP1 SLOAD PUSH1 0x1 PUSH1 0x1 PUSH1 0xA0 SHL SUB NOT AND CALLER OR SWAP1 SSTORE PUSH2 0x587 DUP1 PUSH2 0x2E PUSH0 CODECOPY PUSH0 RETURN INVALID PUSH1 0x80 PUSH1 0x40 MSTORE PUSH1 0x4 CALLDATASIZE LT PUSH2 0x6E JUMPI PUSH0 CALLDATALOAD PUSH1 0xE0 SHR DUP1 PUSH4 0x30DB555F GT PUSH2 0x4C JUMPI DUP1 PUSH4 0x30DB555F EQ PUSH2 0xE5 JUMPI DUP1 PUSH4 0x8129FC1C EQ PUSH2 0xF8 JUMPI DUP1 PUSH4 0x8DA5CB5B EQ PUSH2 0x10C JUMPI DUP1 PUSH4 0xCBCA47DB EQ PUSH2 0x143 JUMPI PUSH0 DUP1 REVERT JUMPDEST DUP1 PUSH4 0x568E65E EQ PUSH2 0x72 JUMPI DUP1 PUSH4 0x2BAECEB7 EQ PUSH2 0xB0 JUMPI DUP1 PUSH4 0x2E1A7D4D EQ PUSH2 0xC6 JUMPI JUMPDEST PUSH0 DUP1 REVERT JUMPDEST CALLVALUE DUP1 ISZERO PUSH2 0x7D JUMPI PUSH0 DUP1 REVERT JUMPDEST POP PUSH2 0x9D PUSH2 0x8C CALLDATASIZE PUSH1 0x4 PUSH2 0x4B6 JUMP JUMPDEST PUSH0 PUSH1 0x20 DUP2 SWAP1 MSTORE SWAP1 DUP2 MSTORE PUSH1 0x40 SWAP1 KECCAK256 SLOAD DUP2 JUMP JUMPDEST PUSH1 0x40 MLOAD SWAP1 DUP2 MSTORE PUSH1 0x20 ADD JUMPDEST PUSH1 0x40 MLOAD DUP1 SWAP2 SUB SWAP1 RETURN JUMPDEST CALLVALUE DUP1 ISZERO PUSH2 0xBB JUMPI PUSH0 DUP1 REVERT JUMPDEST POP PUSH2 0xC4 PUSH2 0x181 JUMP JUMPDEST STOP JUMPDEST CALLVALUE DUP1 ISZERO PUSH2 0xD1 JUMPI PUSH0 DUP1 REVERT JUMPDEST POP PUSH2 0xC4 PUSH2 0xE0 CALLDATASIZE PUSH1 0x4 PUSH2 0x4E3 JUMP JUMPDEST PUSH2 0x24D JUMP JUMPDEST PUSH2 0xC4 PUSH2 0xF3 CALLDATASIZE PUSH1 0x4 PUSH2 0x4E3 JUMP JUMPDEST PUSH2 0x33E JUMP JUMPDEST CALLVALUE DUP1 ISZERO PUSH2 0x103 JUMPI PUSH0 DUP1 REVERT JUMPDEST POP PUSH2 0xC4 PUSH2 0x422 JUMP JUMPDEST CALLVALUE DUP1 ISZERO PUSH2 0x117 JUMPI PUSH0 DUP1 REVERT JUMPDEST POP PUSH1 0x2 SLOAD PUSH2 0x12B SWAP1 PUSH1 0x1 PUSH1 0x1 PUSH1 0xA0 SHL SUB AND DUP2 JUMP JUMPDEST PUSH1 0x40 MLOAD PUSH1 0x1 PUSH1 0x1 PUSH1 0xA0 SHL SUB SWAP1 SWAP2 AND DUP2 MSTORE PUSH1 0x20 ADD PUSH2 0xA7 JUMP JUMPDEST CALLVALUE DUP1 ISZERO PUSH2 0x14E JUMPI PUSH0 DUP1 REVERT JUMPDEST POP PUSH2 0x171 PUSH2 0x15D CALLDATASIZE PUSH1 0x4 PUSH2 0x4B6 JUMP JUMPDEST PUSH1 0x1 PUSH1 0x20 MSTORE PUSH0 SWAP1 DUP2 MSTORE PUSH1 0x40 SWAP1 KECCAK256 SLOAD PUSH1 0xFF AND DUP2 JUMP JUMPDEST PUSH1 0x40 MLOAD SWAP1 ISZERO ISZERO DUP2 MSTORE PUSH1 0x20 ADD PUSH2 0xA7 JUMP JUMPDEST CALLER PUSH0 SWAP1 DUP2 MSTORE PUSH1 0x1 PUSH1 0x20 MSTORE PUSH1 0x40 SWAP1 KECCAK256 SLOAD PUSH1 0xFF AND PUSH2 0x1D6 JUMPI PUSH1 0x40 MLOAD PUSH3 0x461BCD PUSH1 0xE5 SHL DUP2 MSTORE PUSH1 0x20 PUSH1 0x4 DUP3 ADD MSTORE PUSH1 0xF PUSH1 0x24 DUP3 ADD MSTORE PUSH15 0x139BDD081A5B9A5D1A585B1A5E9959 PUSH1 0x8A SHL PUSH1 0x44 DUP3 ADD MSTORE PUSH1 0x64 ADD JUMPDEST PUSH1 0x40 MLOAD DUP1 SWAP2 SUB SWAP1 REVERT JUMPDEST CALLER PUSH0 SWAP1 DUP2 MSTORE PUSH1 0x20 DUP2 SWAP1 MSTORE PUSH1 0x40 SWAP1 KECCAK256 DUP1 SLOAD PUSH2 0x232 JUMPI PUSH1 0x40 MLOAD PUSH3 0x461BCD PUSH1 0xE5 SHL DUP2 MSTORE PUSH1 0x20 PUSH1 0x4 DUP3 ADD MSTORE PUSH1 0xB PUSH1 0x24 DUP3 ADD MSTORE PUSH32 0x4C6F772062616C616E6365000000000000000000000000000000000000000000 PUSH1 0x44 DUP3 ADD MSTORE PUSH1 0x64 ADD PUSH2 0x1CD JUMP JUMPDEST PUSH1 0x1 DUP2 PUSH0 ADD PUSH0 DUP3 DUP3 SLOAD PUSH2 0x245 SWAP2 SWAP1 PUSH2 0x50E JUMP JUMPDEST SWAP1 SWAP2 SSTORE POP POP POP JUMP JUMPDEST PUSH1 0x2 SLOAD PUSH1 0x1 PUSH1 0x1 PUSH1 0xA0 SHL SUB AND CALLER EQ PUSH2 0x2B3 JUMPI PUSH1 0x40 MLOAD PUSH3 0x461BCD PUSH1 0xE5 SHL DUP2 MSTORE PUSH1 0x20 PUSH1 0x4 DUP3 ADD MSTORE PUSH1 0x24 DUP1 DUP3 ADD MSTORE PUSH32 0x4F6E6C792074686520636F6E7472616374206F776E65722063616E2077697468 PUSH1 0x44 DUP3 ADD MSTORE PUSH4 0x64726177 PUSH1 0xE0 SHL PUSH1 0x64 DUP3 ADD MSTORE PUSH1 0x84 ADD PUSH2 0x1CD JUMP JUMPDEST DUP1 SELFBALANCE LT ISZERO PUSH2 0x303 JUMPI PUSH1 0x40 MLOAD PUSH3 0x461BCD PUSH1 0xE5 SHL DUP2 MSTORE PUSH1 0x20 PUSH1 0x4 DUP3 ADD DUP2 SWAP1 MSTORE PUSH1 0x24 DUP3 ADD MSTORE PUSH32 0x496E73756666696369656E742062616C616E636520696E20636F6E7472616374 PUSH1 0x44 DUP3 ADD MSTORE PUSH1 0x64 ADD PUSH2 0x1CD JUMP JUMPDEST PUSH1 0x2 SLOAD PUSH1 0x40 MLOAD PUSH1 0x1 PUSH1 0x1 PUSH1 0xA0 SHL SUB SWAP1 SWAP2 AND SWAP1 DUP3 ISZERO PUSH2 0x8FC MUL SWAP1 DUP4 SWAP1 PUSH0 DUP2 DUP2 DUP2 DUP6 DUP9 DUP9 CALL SWAP4 POP POP POP POP ISZERO DUP1 ISZERO PUSH2 0x33A JUMPI RETURNDATASIZE PUSH0 DUP1 RETURNDATACOPY RETURNDATASIZE PUSH0 REVERT JUMPDEST POP POP JUMP JUMPDEST CALLER PUSH0 SWAP1 DUP2 MSTORE PUSH1 0x1 PUSH1 0x20 MSTORE PUSH1 0x40 SWAP1 KECCAK256 SLOAD PUSH1 0xFF AND PUSH2 0x38E JUMPI PUSH1 0x40 MLOAD PUSH3 0x461BCD PUSH1 0xE5 SHL DUP2 MSTORE PUSH1 0x20 PUSH1 0x4 DUP3 ADD MSTORE PUSH1 0xF PUSH1 0x24 DUP3 ADD MSTORE PUSH15 0x139BDD081A5B9A5D1A585B1A5E9959 PUSH1 0x8A SHL PUSH1 0x44 DUP3 ADD MSTORE PUSH1 0x64 ADD PUSH2 0x1CD JUMP JUMPDEST PUSH2 0x399 DUP2 PUSH1 0x5 PUSH2 0x527 JUMP JUMPDEST PUSH2 0x3A9 SWAP1 PUSH6 0x9184E72A000 PUSH2 0x527 JUMP JUMPDEST CALLVALUE EQ PUSH2 0x3F7 JUMPI PUSH1 0x40 MLOAD PUSH3 0x461BCD PUSH1 0xE5 SHL DUP2 MSTORE PUSH1 0x20 PUSH1 0x4 DUP3 ADD MSTORE PUSH1 0x1B PUSH1 0x24 DUP3 ADD MSTORE PUSH32 0x496E636F727265637420457468657220616D6F756E742073656E740000000000 PUSH1 0x44 DUP3 ADD MSTORE PUSH1 0x64 ADD PUSH2 0x1CD JUMP JUMPDEST CALLER PUSH0 SWAP1 DUP2 MSTORE PUSH1 0x20 DUP2 SWAP1 MSTORE PUSH1 0x40 DUP2 KECCAK256 DUP1 SLOAD SWAP1 SWAP2 DUP4 SWAP2 DUP4 SWAP2 SWAP1 PUSH2 0x419 SWAP1 DUP5 SWAP1 PUSH2 0x53E JUMP JUMPDEST SWAP1 SWAP2 SSTORE POP POP POP POP JUMP JUMPDEST CALLER PUSH0 SWAP1 DUP2 MSTORE PUSH1 0x1 PUSH1 0x20 MSTORE PUSH1 0x40 SWAP1 KECCAK256 SLOAD PUSH1 0xFF AND ISZERO PUSH2 0x481 JUMPI PUSH1 0x40 MLOAD PUSH3 0x461BCD PUSH1 0xE5 SHL DUP2 MSTORE PUSH1 0x20 PUSH1 0x4 DUP3 ADD MSTORE PUSH1 0x13 PUSH1 0x24 DUP3 ADD MSTORE PUSH32 0x416C726561647920496E697469616C697A656400000000000000000000000000 PUSH1 0x44 DUP3 ADD MSTORE PUSH1 0x64 ADD PUSH2 0x1CD JUMP JUMPDEST PUSH1 0x40 DUP1 MLOAD PUSH1 0x20 DUP1 DUP3 ADD DUP4 MSTORE PUSH1 0x3 DUP3 MSTORE CALLER PUSH0 SWAP1 DUP2 MSTORE DUP1 DUP3 MSTORE DUP4 DUP2 KECCAK256 SWAP3 MLOAD SWAP1 SWAP3 SSTORE PUSH1 0x1 SWAP1 DUP2 SWAP1 MSTORE SWAP2 SWAP1 KECCAK256 DUP1 SLOAD PUSH1 0xFF NOT AND SWAP1 SWAP2 OR SWAP1 SSTORE JUMP JUMPDEST PUSH0 PUSH1 0x20 DUP3 DUP5 SUB SLT ISZERO PUSH2 0x4C6 JUMPI PUSH0 DUP1 REVERT JUMPDEST DUP2 CALLDATALOAD PUSH1 0x1 PUSH1 0x1 PUSH1 0xA0 SHL SUB DUP2 AND DUP2 EQ PUSH2 0x4DC JUMPI PUSH0 DUP1 REVERT JUMPDEST SWAP4 SWAP3 POP POP POP JUMP JUMPDEST PUSH0 PUSH1 0x20 DUP3 DUP5 SUB SLT ISZERO PUSH2 0x4F3 JUMPI PUSH0 DUP1 REVERT JUMPDEST POP CALLDATALOAD SWAP2 SWAP1 POP JUMP JUMPDEST PUSH4 0x4E487B71 PUSH1 0xE0 SHL PUSH0 MSTORE PUSH1 0x11 PUSH1 0x4 MSTORE PUSH1 0x24 PUSH0 REVERT JUMPDEST DUP2 DUP2 SUB DUP2 DUP2 GT ISZERO PUSH2 0x521 JUMPI PUSH2 0x521 PUSH2 0x4FA JUMP JUMPDEST SWAP3 SWAP2 POP POP JUMP JUMPDEST DUP1 DUP3 MUL DUP2 ISZERO DUP3 DUP3 DIV DUP5 EQ OR PUSH2 0x521 JUMPI PUSH2 0x521 PUSH2 0x4FA JUMP JUMPDEST DUP1 DUP3 ADD DUP1 DUP3 GT ISZERO PUSH2 0x521 JUMPI PUSH2 0x521 PUSH2 0x4FA JUMP INVALID LOG2 PUSH5 0x6970667358 0x22 SLT KECCAK256 DUP11 0x2B 0x22 0xE6 0xA9 0xDD 0xB9 0x1F DUP6 DUP13 PUSH30 0x798B2CAD24EED222ED26788E0FD3416AC8690A2F0364736F6C6343000819 STOP CALLER "
    },
    "gasEstimates": {
      "creation": {
        "codeDepositCost": "283000",
        "executionCost": "24557",
        "totalCost": "307557"
      },
      "external": {
        "counts(address)": "2474",
        "decrement()": "28852",
        "initialize()": "48869",
        "initialized(address)": "2559",
        "owner()": "2380",
        "topup(uint256)": "infinite",
        "withdraw(uint256)": "infinite"
      }
    },
    "methodIdentifiers": {
      "counts(address)": "0568e65e",
      "decrement()": "2baeceb7",
      "initialize()": "8129fc1c",
      "initialized(address)": "cbca47db",
      "owner()": "8da5cb5b",
      "topup(uint256)": "30db555f",
      "withdraw(uint256)": "2e1a7d4d"
    }
  },
  "storageLayout": {
    "storage": [
      {
        "astId": 9,
        "contract": "Spawnpoint.sol:Spawnpoint",
        "label": "counts",
        "offset": 0,
        "slot": "0",
        "type": "t_mapping(t_address,t_struct(CountHolder)4_storage)"
      },
      {
        "astId": 13,
        "contract": "Spawnpoint.sol:Spawnpoint",
        "label": "initialized",
        "offset": 0,
        "slot": "1",
        "type": "t_mapping(t_address,t_bool)"
      },
      {
        "astId": 15,
        "contract": "Spawnpoint.sol:Spawnpoint",
        "label": "owner",
        "offset": 0,
        "slot": "2",
        "type": "t_address"
      }
    ],
    "types": {
      "t_address": {
        "encoding": "inplace",
        "label": "address",
        "numberOfBytes": "20"
      },
      "t_bool": {
        "encoding": "inplace",
        "label": "bool",
        "numberOfBytes": "1"
      },
      "t_mapping(t_address,t_bool)": {
        "encoding": "mapping",
        "key": "t_address",
        "label": "mapping(address => bool)",
        "numberOfBytes": "32",
        "value": "t_bool"
      },
      "t_mapping(t_address,t_struct(CountHolder)4_storage)": {
        "encoding": "mapping",
        "key": "t_address",
        "label": "mapping(address => struct Spawnpoint.CountHolder)",
        "numberOfBytes": "32",
        "value": "t_struct(CountHolder)4_storage"
      },
      "t_struct(CountHolder)4_storage": {
        "encoding": "inplace",
        "label": "struct Spawnpoint.CountHolder",
        "members": [
          {
            "astId": 3,
            "contract": "Spawnpoint.sol:Spawnpoint",
            "label": "count",
            "offset": 0,
            "slot": "0",
            "type": "t_uint256"
          }
        ],
        "numberOfBytes": "32"
      },
      "t_uint256": {
        "encoding": "inplace",
        "label": "uint256",
        "numberOfBytes": "32"
      }
    }
  },
  "userdoc": {
    "kind": "user",
    "methods": {},
    "version": 1
  }
}